,blockNumber,timeStamp,hash,nonce,blockHash,transactionIndex,from,to,value,gas,gasPrice,isError,txreceipt_status,input,contractAddress,cumulativeGasUsed,gasUsed,confirmations,methodId,functionName,eth value,txn type,AccountId
0,3864107,1497323215,0xae66a98f75085c84361b7fb7411c13c8d2a84bb3a3a36c0cef8493a753c9b46b,31670,0x27794e564f53bb66df77e2121d26fce4f8d4e8efa61768dda0a48a638dc181eb,34,0x556b5712c2a7cc5506fbfa785b52536fb8243765,0xc329e8834527785015b6e6819520e2c4b4b42650,20000000000000000,90000,22458870304,0,,0x,,993669,21000,12111223,0x,,0.02,received,0xc329e8834527785015b6e6819520e2c4b4b42650
1,3866239,1497357881,0x95ab3513484de25d30492b8892d2e582415497e92878aed5f6b9e3ba06eb1697,0,0x41fd24508c092a885ab6f8c86ee0f897331612f89c5620892a23d535d2b16966,40,0xc329e8834527785015b6e6819520e2c4b4b42650,0xc1bc8c28edeaa1daed9a963f2ab7742a4ede1cb6,10000000000000000,250000,21000000000,0,,0xf86c808504e3b292008303d09094c1bc8c28edeaa1daed9a963f2ab7742a4ede1cb6872386f26fc100008025a086590bd95824b7a8ed71bdaa953ba6dd20938a805d9866103456c3ce25ff7ca6a033299336c10159cb48da8918780bb6453f74f89941bf93bb2de37e7a4d97a88d,,1209251,62614,12109091,0xf86c8085,,0.01,sent,0xc329e8834527785015b6e6819520e2c4b4b42650
2,3866316,1497359408,0x50eef08d53c0305060336ea8d8dc91a0ea7636342502360b250050f6cbd21110,1,0xac331f4a905e3e76b7693b66a6951f8f7d4f67f335cb21c21fdc7cec78cccb2e,20,0xc329e8834527785015b6e6819520e2c4b4b42650,0xc1bc8c28edeaa1daed9a963f2ab7742a4ede1cb6,10000000000000000,42221,21000000000,0,,0x,,794118,39976,12109014,0x,,0.01,sent,0xc329e8834527785015b6e6819520e2c4b4b42650
3,3866430,1497361253,0x401f4c6223525534c0a2ea2db54a578be308ebdf2bf72a215ce81034923c3335,2,0x6337df7dd02d836dae664b5e4ce75a4f8d9170eface702534546528f368f4709,28,0xc329e8834527785015b6e6819520e2c4b4b42650,0xc1bc8c28edeaa1daed9a963f2ab7742a4ede1cb6,10000000000000000,42221,21000000000,0,,0x,,956833,39976,12108900,0x,,0.01,sent,0xc329e8834527785015b6e6819520e2c4b4b42650
4,3866437,1497361340,0x3be549d4f069eee1f4defac55e52235a7b7f3e4770301f0e1523576878f185bd,3,0x21fb14c27804ac892f95c6be41beac110bda31832b1383c77fb1b5bfde1caa1a,34,0xc329e8834527785015b6e6819520e2c4b4b42650,0xc1bc8c28edeaa1daed9a963f2ab7742a4ede1cb6,10000000000000000,42221,21000000000,0,,0x,,1004500,39976,12108893,0x,,0.01,sent,0xc329e8834527785015b6e6819520e2c4b4b42650
5,3866437,1497361340,0x51a4c1c2963923641b350f1dafcdc8093db3e2a023e9047326f2bdc996555a3f,4,0x21fb14c27804ac892f95c6be41beac110bda31832b1383c77fb1b5bfde1caa1a,126,0xc329e8834527785015b6e6819520e2c4b4b42650,0xc1bc8c28edeaa1daed9a963f2ab7742a4ede1cb6,10000000000000000,42221,21000000000,0,,0x,,4183127,39976,12108893,0x,,0.01,sent,0xc329e8834527785015b6e6819520e2c4b4b42650
6,3866437,1497361340,0xca10f1a9f8932fccd63a3dc44e827458c607ff5b81202d8ef1ba4ec34b25792c,5,0x21fb14c27804ac892f95c6be41beac110bda31832b1383c77fb1b5bfde1caa1a,139,0xc329e8834527785015b6e6819520e2c4b4b42650,0xc1bc8c28edeaa1daed9a963f2ab7742a4ede1cb6,10000000000000000,42221,21000000000,0,,0x,,4588608,39976,12108893,0x,,0.01,sent,0xc329e8834527785015b6e6819520e2c4b4b42650
7,3866437,1497361340,0x1f7e738d556a00ee33179711279626b4e007642be8cb4a32fa3d017c2ea95715,6,0x21fb14c27804ac892f95c6be41beac110bda31832b1383c77fb1b5bfde1caa1a,142,0xc329e8834527785015b6e6819520e2c4b4b42650,0xc1bc8c28edeaa1daed9a963f2ab7742a4ede1cb6,10000000000000000,42221,21000000000,0,,0x,,4670584,39976,12108893,0x,,0.01,sent,0xc329e8834527785015b6e6819520e2c4b4b42650
8,3866438,1497361345,0x3897aca1c8611c4b916a6e831cdf0999a60330c225791f8dacf14139821cf05c,7,0xffa835923285c3e21775f5f026a388a03901ecd00a72d3a6036fca58a31ea513,4,0xc329e8834527785015b6e6819520e2c4b4b42650,0xc1bc8c28edeaa1daed9a963f2ab7742a4ede1cb6,10000000000000000,42221,21000000000,0,,0x,,142488,39976,12108892,0x,,0.01,sent,0xc329e8834527785015b6e6819520e2c4b4b42650
9,3866441,1497361372,0x76d8421d880ec91d947f619c445f4cf27dc3f5482a306b4abddc47a190c2aad0,8,0x189cdf4ef18339630feb65a9a5366e79747f0197421959118a2619df3b154a44,10,0xc329e8834527785015b6e6819520e2c4b4b42650,0xc1bc8c28edeaa1daed9a963f2ab7742a4ede1cb6,10000000000000000,42221,21000000000,0,,0x,,582615,39976,12108889,0x,,0.01,sent,0xc329e8834527785015b6e6819520e2c4b4b42650
10,3866442,1497361380,0xa67dae336e9e49e0d0570b2fafd0d72d21a7d974ab5e54c3ebceef5503437c2b,9,0xd71259951cc57e3081e8ae40dc2927fe8f6e04de96dda61425c58ee0dd7bc3cf,5,0xc329e8834527785015b6e6819520e2c4b4b42650,0xc1bc8c28edeaa1daed9a963f2ab7742a4ede1cb6,10000000000000000,42221,21000000000,0,,0x,,609291,39976,12108888,0x,,0.01,sent,0xc329e8834527785015b6e6819520e2c4b4b42650
11,3866444,1497361442,0x29b2ebff6a6963b05da530c06ec163d52f28a96209bed47d7e0765f06b62ea9c,10,0x9da4066c37c6c282a17069a618b094eca7ddc5243197bfe9016b7d35a660de8e,9,0xc329e8834527785015b6e6819520e2c4b4b42650,0xc1bc8c28edeaa1daed9a963f2ab7742a4ede1cb6,10000000000000000,42221,21000000000,0,,0x,,230942,39976,12108886,0x,,0.01,sent,0xc329e8834527785015b6e6819520e2c4b4b42650
12,3885253,1497667984,0x0e1803cd0efc9f41cdf8dac350578503ef5265a6d37a8aa17b6a45bd4f7db86a,33659,0x920e6e3fda95f09a3d68c6dfe9aaf16d66fb13bb80dda86478e2add5713e52fb,87,0x556b5712c2a7cc5506fbfa785b52536fb8243765,0xc329e8834527785015b6e6819520e2c4b4b42650,15079926560000000000,90000,21000000000,0,,0x,,3315637,21000,12090077,0x,,15.07992656,received,0xc329e8834527785015b6e6819520e2c4b4b42650
13,3888381,1497718409,0xda86d636bb63d08a2599a071d2c5ede2273f918381b13f9d7453261dd0793b10,11,0x94ddd5d5685535620f2338216614ca9723204c8bad864c2a3da0a541b51b84dc,43,0xc329e8834527785015b6e6819520e2c4b4b42650,0x5831925c3e0039f119504eb2ee39e94a5dc17e28,2000000000000000000,21000,21000000000,0,,0x,,1165862,21000,12086949,0x,,2,sent,0xc329e8834527785015b6e6819520e2c4b4b42650
14,3893073,1497793880,0xe83c9bc1d4a47e9a82816e128f45820828f059540e916a104565d3610266d8e3,12,0x026295f97164567eed781fb23039c9ccb7703e0ad3b9ea8e73d5da73d45644b6,58,0xc329e8834527785015b6e6819520e2c4b4b42650,0x64340ed116881e2b435b7240b3a60cf224630e01,8000000000000000000,400000,20000000000,0,,0x,,3552129,61145,12082257,0x,,8,sent,0xc329e8834527785015b6e6819520e2c4b4b42650
15,3893416,1497799178,0x889822a687dcc4c1eebf1719691497672ab1066b9144ee858712be7ef481ad43,13,0x84464b8895cf07639587ed640ddd84e4ebbc10cae80dddd4ee1c57f3db2d099e,79,0xc329e8834527785015b6e6819520e2c4b4b42650,0x5d5051199a3ccf40dc28265f6a96ed101e22f1e3,1010000000000000000,21000,20000000000,0,,0x,,3727816,21000,12081914,0x,,1.01,sent,0xc329e8834527785015b6e6819520e2c4b4b42650
16,3896949,1497857090,0xe5c13b5058d652c8832c9efd4d8791ac84e9721697781c049a037c79eb72fa55,14,0xfa8d32bc2d162e748238f66d25dfddf9ae4c8dddfe2363cd43b7ec056ed14b73,116,0xc329e8834527785015b6e6819520e2c4b4b42650,0x5d5051199a3ccf40dc28265f6a96ed101e22f1e3,4050000000000000000,21000,20000000000,0,,0x,,4309792,21000,12078381,0x,,4.05,sent,0xc329e8834527785015b6e6819520e2c4b4b42650
17,3905840,1498007730,0xca3915ab855598fb0c3c09f9f41a77d0ab1535b1767ec869bdc189bc60c571b5,6,0xe54db02e5206735084f119cf7305407e406a462a0642852e369522a3207c461d,35,0x5d5051199a3ccf40dc28265f6a96ed101e22f1e3,0xc329e8834527785015b6e6819520e2c4b4b42650,1000000000000000000,60000,57475936256,0,,0x,,3313586,21000,12069490,0x,,1,received,0xc329e8834527785015b6e6819520e2c4b4b42650
18,3910950,1498097817,0x64e8fc9439cfac6f10ced4eee19eb63cbd65c6c5368506f53511034de2d0bef6,15,0x4dca4f2ad185c186a44cf2a17fb977b2ec2cbf180b5a333763addaa220eeff6a,33,0xc329e8834527785015b6e6819520e2c4b4b42650,0xe4862f2717e22538602d851555f9188cb3add082,1000000000000000000,21000,20000000000,0,,0x,,766091,21000,12064380,0x,,1,sent,0xc329e8834527785015b6e6819520e2c4b4b42650
19,4007271,1499770457,0x2b74d21e071141e50a5dd8bdae703b60765c707c8eaa16b98c9f65c3beb8e84b,16,0x141e2d198453a831b0703f53aed926801e86997fddbf8cdb23aac08c043726b1,12,0xc329e8834527785015b6e6819520e2c4b4b42650,0xc1bc8c28edeaa1daed9a963f2ab7742a4ede1cb6,0,52114,21000000000,0,,0xa9059cbb0000000000000000000000005d5051199a3ccf40dc28265f6a96ed101e22f1e30000000000000000000000000000000000000000000002544faa778090e00000,,434230,37114,11968059,0xa9059cbb,"transfer(address _to, uint256 _value)",0,sent,0xc329e8834527785015b6e6819520e2c4b4b42650
20,4198786,1503584116,0xc26084713beab79aef67330d981d252e085b69a8bf3217ce2cd6230798afd697,17,0xaba670acd801e1a668602103d8a9bdaad38871ecc0e6f9f3e5c80a51b5c68d75,82,0xc329e8834527785015b6e6819520e2c4b4b42650,0x64340ed116881e2b435b7240b3a60cf224630e01,0,52224,21000000000,0,,0xa9059cbb0000000000000000000000003bc46da8dddde2a91233b6061d27f6ee45029f2f00000000000000000000000000000000000000000000065677163c4d65180000,,4130914,37224,11776544,0xa9059cbb,"transfer(address _to, uint256 _value)",0,sent,0xc329e8834527785015b6e6819520e2c4b4b42650
21,4198789,1503584340,0x872a4369492081ac6b5703d7ff0821f680ee6e1313c25790f5e470bf29be4278,18,0x26dfe49db389043f41f36b130494b6db518b7aecf5ba2f9c89c8f8b4f0de6db6,74,0xc329e8834527785015b6e6819520e2c4b4b42650,0x64340ed116881e2b435b7240b3a60cf224630e01,0,23320,21000000000,1,,0xa9059cbb0000000000000000000000003bc46da8dddde2a91233b6061d27f6ee45029f2f00000000000000000000000000000000000000000000065677163c4d65180000,,3097160,23320,11776541,0xa9059cbb,"transfer(address _to, uint256 _value)",0,sent,0xc329e8834527785015b6e6819520e2c4b4b42650
22,5212722,1520427978,0x0ef3153e4773d2077ca02f0610761a6015b4ed2faa1a25df9d97d6ebd384cc71,19,0x74e398c2348108c1ddf2ef77a5695b0cd74a8421910d263b30e95e290d1d67bf,47,0xc329e8834527785015b6e6819520e2c4b4b42650,0x01995786f1435743c42b7f2276c496a610b58612,0,107276,21000000000,0,1,0xa9059cbb0000000000000000000000005d5051199a3ccf40dc28265f6a96ed101e22f1e300000000000000000000000000000000000000000000014542ba12a337c00000,,2041230,107276,10762608,0xa9059cbb,"transfer(address _to, uint256 _value)",0,sent,0xc329e8834527785015b6e6819520e2c4b4b42650
23,5212745,1520428302,0xe17bf3b229ca6169c488d520365a91d61e21007dd0f86dfe1074178b2bf01afc,20,0xd98e6df30a1303d0617fe3bba017953002b8e2501e6f02d9326d2d9931cb1d61,71,0xc329e8834527785015b6e6819520e2c4b4b42650,0x5d5051199a3ccf40dc28265f6a96ed101e22f1e3,22500000000000000,21000,21000000000,0,1,0x,,2498783,21000,10762585,0x,,0.0225,sent,0xc329e8834527785015b6e6819520e2c4b4b42650
